{
  "_format": "hh-sol-artifact-1",
  "contractName": "HashGenerator",
  "sourceName": "contracts/HashGenerator.sol",
  "abi": [
    {
      "anonymous": false,
      "inputs": [
        {
          "indexed": true,
          "internalType": "string",
          "name": "patientId",
          "type": "string"
        },
        {
          "indexed": false,
          "internalType": "string",
          "name": "hash",
          "type": "string"
        }
      ],
      "name": "RecordHashStored",
      "type": "event"
    },
    {
      "inputs": [
        {
          "internalType": "string",
          "name": "patientId",
          "type": "string"
        }
      ],
      "name": "getRecordHash",
      "outputs": [
        {
          "internalType": "string",
          "name": "",
          "type": "string"
        }
      ],
      "stateMutability": "view",
      "type": "function"
    },
    {
      "inputs": [
        {
          "internalType": "string",
          "name": "patientId",
          "type": "string"
        },
        {
          "internalType": "string",
          "name": "hash",
          "type": "string"
        }
      ],
      "name": "storeRecordHash",
      "outputs": [],
      "stateMutability": "nonpayable",
      "type": "function"
    }
  ],
  "bytecode": "0x6080604052348015600f57600080fd5b506107e18061001f6000396000f3fe608060405234801561001057600080fd5b50600436106100365760003560e01c80631eb025641461003b5780639fd8630514610057575b600080fd5b6100556004803603810190610050919061030e565b610087565b005b610071600480360381019061006c9190610386565b610104565b60405161007e919061044e565b60405180910390f35b8060008360405161009891906104ac565b908152602001604051809103902090816100b291906106d9565b50816040516100c191906104ac565b60405180910390207f2af3ba0be07e9fad7db6cd90d9784e9a4888a73f05820fa0ea97fcf04bb16c34826040516100f8919061044e565b60405180910390a25050565b606060008260405161011691906104ac565b9081526020016040518091039020805461012f906104f2565b80601f016020809104026020016040519081016040528092919081815260200182805461015b906104f2565b80156101a85780601f1061017d576101008083540402835291602001916101a8565b820191906000526020600020905b81548152906001019060200180831161018b57829003601f168201915b50505050509050919050565b6000604051905090565b600080fd5b600080fd5b600080fd5b600080fd5b6000601f19601f8301169050919050565b7f4e487b7100000000000000000000000000000000000000000000000000000000600052604160045260246000fd5b61021b826101d2565b810181811067ffffffffffffffff8211171561023a576102396101e3565b5b80604052505050565b600061024d6101b4565b90506102598282610212565b919050565b600067ffffffffffffffff821115610279576102786101e3565b5b610282826101d2565b9050602081019050919050565b82818337600083830152505050565b60006102b16102ac8461025e565b610243565b9050828152602081018484840111156102cd576102cc6101cd565b5b6102d884828561028f565b509392505050565b600082601f8301126102f5576102f46101c8565b5b813561030584826020860161029e565b91505092915050565b60008060408385031215610325576103246101be565b5b600083013567ffffffffffffffff811115610343576103426101c3565b5b61034f858286016102e0565b925050602083013567ffffffffffffffff8111156103705761036f6101c3565b5b61037c858286016102e0565b9150509250929050565b60006020828403121561039c5761039b6101be565b5b600082013567ffffffffffffffff8111156103ba576103b96101c3565b5b6103c6848285016102e0565b91505092915050565b600081519050919050565b600082825260208201905092915050565b60005b838110156104095780820151818401526020810190506103ee565b60008484015250505050565b6000610420826103cf565b61042a81856103da565b935061043a8185602086016103eb565b610443816101d2565b840191505092915050565b600060208201905081810360008301526104688184610415565b905092915050565b600081905092915050565b6000610486826103cf565b6104908185610470565b93506104a08185602086016103eb565b80840191505092915050565b60006104b8828461047b565b915081905092915050565b7f4e487b7100000000000000000000000000000000000000000000000000000000600052602260045260246000fd5b6000600282049050600182168061050a57607f821691505b60208210810361051d5761051c6104c3565b5b50919050565b60008190508160005260206000209050919050565b60006020601f8301049050919050565b600082821b905092915050565b6000600883026105857fffffffffffffffffffffffffffffffffffffffffffffffffffffffffffffffff82610548565b61058f8683610548565b95508019841693508086168417925050509392505050565b6000819050919050565b6000819050919050565b60006105d66105d16105cc846105a7565b6105b1565b6105a7565b9050919050565b6000819050919050565b6105f0836105bb565b6106046105fc826105dd565b848454610555565b825550505050565b600090565b61061961060c565b6106248184846105e7565b505050565b5b818110156106485761063d600082610611565b60018101905061062a565b5050565b601f82111561068d5761065e81610523565b61066784610538565b81016020851015610676578190505b61068a61068285610538565b830182610629565b50505b505050565b600082821c905092915050565b60006106b060001984600802610692565b1980831691505092915050565b60006106c9838361069f565b9150826002028217905092915050565b6106e2826103cf565b67ffffffffffffffff8111156106fb576106fa6101e3565b5b61070582546104f2565b61071082828561064c565b600060209050601f8311600181146107435760008415610731578287015190505b61073b85826106bd565b8655506107a3565b601f19841661075186610523565b60005b8281101561077957848901518255600182019150602085019450602081019050610754565b868310156107965784890151610792601f89168261069f565b8355505b6001600288020188555050505b50505050505056fea2646970667358221220115649ab75fe8fe6e27489f3d4e437b9323f89ef07a728184040478a44ad202c64736f6c634300081c0033",
  "linkReferences": {},
  "deployedLinkReferences": {}
}