{
  "_format": "hh-sol-artifact-1",
  "contractName": "HashGenerator",
  "sourceName": "contracts/HashGenerator.sol",
  "abi": [
    {
      "anonymous": false,
      "inputs": [
        {
          "indexed": true,
          "internalType": "string",
          "name": "patientId",
          "type": "string"
        },
        {
          "indexed": false,
          "internalType": "bytes32",
          "name": "recordHash",
          "type": "bytes32"
        }
      ],
      "name": "RecordHashStored",
      "type": "event"
    },
    {
      "inputs": [
        {
          "internalType": "string",
          "name": "patientId",
          "type": "string"
        }
      ],
      "name": "getRecordHash",
      "outputs": [
        {
          "internalType": "bytes32",
          "name": "",
          "type": "bytes32"
        }
      ],
      "stateMutability": "view",
      "type": "function"
    },
    {
      "inputs": [
        {
          "internalType": "string",
          "name": "patientId",
          "type": "string"
        },
        {
          "internalType": "string",
          "name": "medicalData",
          "type": "string"
        }
      ],
      "name": "storeRecordHash",
      "outputs": [],
      "stateMutability": "nonpayable",
      "type": "function"
    }
  ],
  "bytecode": "0x6080604052348015600f57600080fd5b5061045b8061001f6000396000f3fe608060405234801561001057600080fd5b50600436106100365760003560e01c80631eb025641461003b5780639fd8630514610057575b600080fd5b610055600480360381019061005091906102a8565b610087565b005b610071600480360381019061006c9190610320565b610127565b60405161007e9190610382565b60405180910390f35b60008160405160200161009a919061040e565b604051602081830303815290604052805190602001209050806000846040516100c3919061040e565b908152602001604051809103902081905550826040516100e3919061040e565b60405180910390207fdb1413a446bbc4feae849fb8011c77f73c8f9a2bd6e3928e74c1b8c263f5fa378260405161011a9190610382565b60405180910390a2505050565b60008082604051610138919061040e565b9081526020016040518091039020549050919050565b6000604051905090565b600080fd5b600080fd5b600080fd5b600080fd5b6000601f19601f8301169050919050565b7f4e487b7100000000000000000000000000000000000000000000000000000000600052604160045260246000fd5b6101b58261016c565b810181811067ffffffffffffffff821117156101d4576101d361017d565b5b80604052505050565b60006101e761014e565b90506101f382826101ac565b919050565b600067ffffffffffffffff8211156102135761021261017d565b5b61021c8261016c565b9050602081019050919050565b82818337600083830152505050565b600061024b610246846101f8565b6101dd565b90508281526020810184848401111561026757610266610167565b5b610272848285610229565b509392505050565b600082601f83011261028f5761028e610162565b5b813561029f848260208601610238565b91505092915050565b600080604083850312156102bf576102be610158565b5b600083013567ffffffffffffffff8111156102dd576102dc61015d565b5b6102e98582860161027a565b925050602083013567ffffffffffffffff81111561030a5761030961015d565b5b6103168582860161027a565b9150509250929050565b60006020828403121561033657610335610158565b5b600082013567ffffffffffffffff8111156103545761035361015d565b5b6103608482850161027a565b91505092915050565b6000819050919050565b61037c81610369565b82525050565b60006020820190506103976000830184610373565b92915050565b600081519050919050565b600081905092915050565b60005b838110156103d15780820151818401526020810190506103b6565b60008484015250505050565b60006103e88261039d565b6103f281856103a8565b93506104028185602086016103b3565b80840191505092915050565b600061041a82846103dd565b91508190509291505056fea2646970667358221220ffaf0430b96848698485021573115e6c79382827926affaccae900737d5518d064736f6c634300081c0033",
  "linkReferences": {},
  "deployedLinkReferences": {}
}