{
  "contracts/HashGenerator.sol": {
    "HashGenerator": {
      "abi": [
        {
          "anonymous": false,
          "inputs": [
            {
              "indexed": true,
              "internalType": "string",
              "name": "patientId",
              "type": "string"
            },
            {
              "indexed": false,
              "internalType": "string",
              "name": "hash",
              "type": "string"
            }
          ],
          "name": "RecordHashStored",
          "type": "event"
        },
        {
          "inputs": [
            {
              "internalType": "string",
              "name": "patientId",
              "type": "string"
            }
          ],
          "name": "getRecordHash",
          "outputs": [
            {
              "internalType": "string",
              "name": "",
              "type": "string"
            }
          ],
          "stateMutability": "view",
          "type": "function"
        },
        {
          "inputs": [
            {
              "internalType": "string",
              "name": "patientId",
              "type": "string"
            },
            {
              "internalType": "string",
              "name": "hash",
              "type": "string"
            }
          ],
          "name": "storeRecordHash",
          "outputs": [],
          "stateMutability": "nonpayable",
          "type": "function"
        }
      ],
      "evm": {
        "bytecode": {
          "linkReferences": {},
          "object": "6080604052348015600f57600080fd5b506107e18061001f6000396000f3fe608060405234801561001057600080fd5b50600436106100365760003560e01c80631eb025641461003b5780639fd8630514610057575b600080fd5b6100556004803603810190610050919061030e565b610087565b005b610071600480360381019061006c9190610386565b610104565b60405161007e919061044e565b60405180910390f35b8060008360405161009891906104ac565b908152602001604051809103902090816100b291906106d9565b50816040516100c191906104ac565b60405180910390207f2af3ba0be07e9fad7db6cd90d9784e9a4888a73f05820fa0ea97fcf04bb16c34826040516100f8919061044e565b60405180910390a25050565b606060008260405161011691906104ac565b9081526020016040518091039020805461012f906104f2565b80601f016020809104026020016040519081016040528092919081815260200182805461015b906104f2565b80156101a85780601f1061017d576101008083540402835291602001916101a8565b820191906000526020600020905b81548152906001019060200180831161018b57829003601f168201915b50505050509050919050565b6000604051905090565b600080fd5b600080fd5b600080fd5b600080fd5b6000601f19601f8301169050919050565b7f4e487b7100000000000000000000000000000000000000000000000000000000600052604160045260246000fd5b61021b826101d2565b810181811067ffffffffffffffff8211171561023a576102396101e3565b5b80604052505050565b600061024d6101b4565b90506102598282610212565b919050565b600067ffffffffffffffff821115610279576102786101e3565b5b610282826101d2565b9050602081019050919050565b82818337600083830152505050565b60006102b16102ac8461025e565b610243565b9050828152602081018484840111156102cd576102cc6101cd565b5b6102d884828561028f565b509392505050565b600082601f8301126102f5576102f46101c8565b5b813561030584826020860161029e565b91505092915050565b60008060408385031215610325576103246101be565b5b600083013567ffffffffffffffff811115610343576103426101c3565b5b61034f858286016102e0565b925050602083013567ffffffffffffffff8111156103705761036f6101c3565b5b61037c858286016102e0565b9150509250929050565b60006020828403121561039c5761039b6101be565b5b600082013567ffffffffffffffff8111156103ba576103b96101c3565b5b6103c6848285016102e0565b91505092915050565b600081519050919050565b600082825260208201905092915050565b60005b838110156104095780820151818401526020810190506103ee565b60008484015250505050565b6000610420826103cf565b61042a81856103da565b935061043a8185602086016103eb565b610443816101d2565b840191505092915050565b600060208201905081810360008301526104688184610415565b905092915050565b600081905092915050565b6000610486826103cf565b6104908185610470565b93506104a08185602086016103eb565b80840191505092915050565b60006104b8828461047b565b915081905092915050565b7f4e487b7100000000000000000000000000000000000000000000000000000000600052602260045260246000fd5b6000600282049050600182168061050a57607f821691505b60208210810361051d5761051c6104c3565b5b50919050565b60008190508160005260206000209050919050565b60006020601f8301049050919050565b600082821b905092915050565b6000600883026105857fffffffffffffffffffffffffffffffffffffffffffffffffffffffffffffffff82610548565b61058f8683610548565b95508019841693508086168417925050509392505050565b6000819050919050565b6000819050919050565b60006105d66105d16105cc846105a7565b6105b1565b6105a7565b9050919050565b6000819050919050565b6105f0836105bb565b6106046105fc826105dd565b848454610555565b825550505050565b600090565b61061961060c565b6106248184846105e7565b505050565b5b818110156106485761063d600082610611565b60018101905061062a565b5050565b601f82111561068d5761065e81610523565b61066784610538565b81016020851015610676578190505b61068a61068285610538565b830182610629565b50505b505050565b600082821c905092915050565b60006106b060001984600802610692565b1980831691505092915050565b60006106c9838361069f565b9150826002028217905092915050565b6106e2826103cf565b67ffffffffffffffff8111156106fb576106fa6101e3565b5b61070582546104f2565b61071082828561064c565b600060209050601f8311600181146107435760008415610731578287015190505b61073b85826106bd565b8655506107a3565b601f19841661075186610523565b60005b8281101561077957848901518255600182019150602085019450602081019050610754565b868310156107965784890151610792601f89168261069f565b8355505b6001600288020188555050505b50505050505056fea2646970667358221220115649ab75fe8fe6e27489f3d4e437b9323f89ef07a728184040478a44ad202c64736f6c634300081c0033",
          "opcodes": "PUSH1 0x80 PUSH1 0x40 MSTORE CALLVALUE DUP1 ISZERO PUSH1 0xF JUMPI PUSH1 0x0 DUP1 REVERT JUMPDEST POP PUSH2 0x7E1 DUP1 PUSH2 0x1F PUSH1 0x0 CODECOPY PUSH1 0x0 RETURN INVALID PUSH1 0x80 PUSH1 0x40 MSTORE CALLVALUE DUP1 ISZERO PUSH2 0x10 JUMPI PUSH1 0x0 DUP1 REVERT JUMPDEST POP PUSH1 0x4 CALLDATASIZE LT PUSH2 0x36 JUMPI PUSH1 0x0 CALLDATALOAD PUSH1 0xE0 SHR DUP1 PUSH4 0x1EB02564 EQ PUSH2 0x3B JUMPI DUP1 PUSH4 0x9FD86305 EQ PUSH2 0x57 JUMPI JUMPDEST PUSH1 0x0 DUP1 REVERT JUMPDEST PUSH2 0x55 PUSH1 0x4 DUP1 CALLDATASIZE SUB DUP2 ADD SWAP1 PUSH2 0x50 SWAP2 SWAP1 PUSH2 0x30E JUMP JUMPDEST PUSH2 0x87 JUMP JUMPDEST STOP JUMPDEST PUSH2 0x71 PUSH1 0x4 DUP1 CALLDATASIZE SUB DUP2 ADD SWAP1 PUSH2 0x6C SWAP2 SWAP1 PUSH2 0x386 JUMP JUMPDEST PUSH2 0x104 JUMP JUMPDEST PUSH1 0x40 MLOAD PUSH2 0x7E SWAP2 SWAP1 PUSH2 0x44E JUMP JUMPDEST PUSH1 0x40 MLOAD DUP1 SWAP2 SUB SWAP1 RETURN JUMPDEST DUP1 PUSH1 0x0 DUP4 PUSH1 0x40 MLOAD PUSH2 0x98 SWAP2 SWAP1 PUSH2 0x4AC JUMP JUMPDEST SWAP1 DUP2 MSTORE PUSH1 0x20 ADD PUSH1 0x40 MLOAD DUP1 SWAP2 SUB SWAP1 KECCAK256 SWAP1 DUP2 PUSH2 0xB2 SWAP2 SWAP1 PUSH2 0x6D9 JUMP JUMPDEST POP DUP2 PUSH1 0x40 MLOAD PUSH2 0xC1 SWAP2 SWAP1 PUSH2 0x4AC JUMP JUMPDEST PUSH1 0x40 MLOAD DUP1 SWAP2 SUB SWAP1 KECCAK256 PUSH32 0x2AF3BA0BE07E9FAD7DB6CD90D9784E9A4888A73F05820FA0EA97FCF04BB16C34 DUP3 PUSH1 0x40 MLOAD PUSH2 0xF8 SWAP2 SWAP1 PUSH2 0x44E JUMP JUMPDEST PUSH1 0x40 MLOAD DUP1 SWAP2 SUB SWAP1 LOG2 POP POP JUMP JUMPDEST PUSH1 0x60 PUSH1 0x0 DUP3 PUSH1 0x40 MLOAD PUSH2 0x116 SWAP2 SWAP1 PUSH2 0x4AC JUMP JUMPDEST SWAP1 DUP2 MSTORE PUSH1 0x20 ADD PUSH1 0x40 MLOAD DUP1 SWAP2 SUB SWAP1 KECCAK256 DUP1 SLOAD PUSH2 0x12F SWAP1 PUSH2 0x4F2 JUMP JUMPDEST DUP1 PUSH1 0x1F ADD PUSH1 0x20 DUP1 SWAP2 DIV MUL PUSH1 0x20 ADD PUSH1 0x40 MLOAD SWAP1 DUP2 ADD PUSH1 0x40 MSTORE DUP1 SWAP3 SWAP2 SWAP1 DUP2 DUP2 MSTORE PUSH1 0x20 ADD DUP3 DUP1 SLOAD PUSH2 0x15B SWAP1 PUSH2 0x4F2 JUMP JUMPDEST DUP1 ISZERO PUSH2 0x1A8 JUMPI DUP1 PUSH1 0x1F LT PUSH2 0x17D JUMPI PUSH2 0x100 DUP1 DUP4 SLOAD DIV MUL DUP4 MSTORE SWAP2 PUSH1 0x20 ADD SWAP2 PUSH2 0x1A8 JUMP JUMPDEST DUP3 ADD SWAP2 SWAP1 PUSH1 0x0 MSTORE PUSH1 0x20 PUSH1 0x0 KECCAK256 SWAP1 JUMPDEST DUP2 SLOAD DUP2 MSTORE SWAP1 PUSH1 0x1 ADD SWAP1 PUSH1 0x20 ADD DUP1 DUP4 GT PUSH2 0x18B JUMPI DUP3 SWAP1 SUB PUSH1 0x1F AND DUP3 ADD SWAP2 JUMPDEST POP POP POP POP POP SWAP1 POP SWAP2 SWAP1 POP JUMP JUMPDEST PUSH1 0x0 PUSH1 0x40 MLOAD SWAP1 POP SWAP1 JUMP JUMPDEST PUSH1 0x0 DUP1 REVERT JUMPDEST PUSH1 0x0 DUP1 REVERT JUMPDEST PUSH1 0x0 DUP1 REVERT JUMPDEST PUSH1 0x0 DUP1 REVERT JUMPDEST PUSH1 0x0 PUSH1 0x1F NOT PUSH1 0x1F DUP4 ADD AND SWAP1 POP SWAP2 SWAP1 POP JUMP JUMPDEST PUSH32 0x4E487B7100000000000000000000000000000000000000000000000000000000 PUSH1 0x0 MSTORE PUSH1 0x41 PUSH1 0x4 MSTORE PUSH1 0x24 PUSH1 0x0 REVERT JUMPDEST PUSH2 0x21B DUP3 PUSH2 0x1D2 JUMP JUMPDEST DUP2 ADD DUP2 DUP2 LT PUSH8 0xFFFFFFFFFFFFFFFF DUP3 GT OR ISZERO PUSH2 0x23A JUMPI PUSH2 0x239 PUSH2 0x1E3 JUMP JUMPDEST JUMPDEST DUP1 PUSH1 0x40 MSTORE POP POP POP JUMP JUMPDEST PUSH1 0x0 PUSH2 0x24D PUSH2 0x1B4 JUMP JUMPDEST SWAP1 POP PUSH2 0x259 DUP3 DUP3 PUSH2 0x212 JUMP JUMPDEST SWAP2 SWAP1 POP JUMP JUMPDEST PUSH1 0x0 PUSH8 0xFFFFFFFFFFFFFFFF DUP3 GT ISZERO PUSH2 0x279 JUMPI PUSH2 0x278 PUSH2 0x1E3 JUMP JUMPDEST JUMPDEST PUSH2 0x282 DUP3 PUSH2 0x1D2 JUMP JUMPDEST SWAP1 POP PUSH1 0x20 DUP2 ADD SWAP1 POP SWAP2 SWAP1 POP JUMP JUMPDEST DUP3 DUP2 DUP4 CALLDATACOPY PUSH1 0x0 DUP4 DUP4 ADD MSTORE POP POP POP JUMP JUMPDEST PUSH1 0x0 PUSH2 0x2B1 PUSH2 0x2AC DUP5 PUSH2 0x25E JUMP JUMPDEST PUSH2 0x243 JUMP JUMPDEST SWAP1 POP DUP3 DUP2 MSTORE PUSH1 0x20 DUP2 ADD DUP5 DUP5 DUP5 ADD GT ISZERO PUSH2 0x2CD JUMPI PUSH2 0x2CC PUSH2 0x1CD JUMP JUMPDEST JUMPDEST PUSH2 0x2D8 DUP5 DUP3 DUP6 PUSH2 0x28F JUMP JUMPDEST POP SWAP4 SWAP3 POP POP POP JUMP JUMPDEST PUSH1 0x0 DUP3 PUSH1 0x1F DUP4 ADD SLT PUSH2 0x2F5 JUMPI PUSH2 0x2F4 PUSH2 0x1C8 JUMP JUMPDEST JUMPDEST DUP2 CALLDATALOAD PUSH2 0x305 DUP5 DUP3 PUSH1 0x20 DUP7 ADD PUSH2 0x29E JUMP JUMPDEST SWAP2 POP POP SWAP3 SWAP2 POP POP JUMP JUMPDEST PUSH1 0x0 DUP1 PUSH1 0x40 DUP4 DUP6 SUB SLT ISZERO PUSH2 0x325 JUMPI PUSH2 0x324 PUSH2 0x1BE JUMP JUMPDEST JUMPDEST PUSH1 0x0 DUP4 ADD CALLDATALOAD PUSH8 0xFFFFFFFFFFFFFFFF DUP2 GT ISZERO PUSH2 0x343 JUMPI PUSH2 0x342 PUSH2 0x1C3 JUMP JUMPDEST JUMPDEST PUSH2 0x34F DUP6 DUP3 DUP7 ADD PUSH2 0x2E0 JUMP JUMPDEST SWAP3 POP POP PUSH1 0x20 DUP4 ADD CALLDATALOAD PUSH8 0xFFFFFFFFFFFFFFFF DUP2 GT ISZERO PUSH2 0x370 JUMPI PUSH2 0x36F PUSH2 0x1C3 JUMP JUMPDEST JUMPDEST PUSH2 0x37C DUP6 DUP3 DUP7 ADD PUSH2 0x2E0 JUMP JUMPDEST SWAP2 POP POP SWAP3 POP SWAP3 SWAP1 POP JUMP JUMPDEST PUSH1 0x0 PUSH1 0x20 DUP3 DUP5 SUB SLT ISZERO PUSH2 0x39C JUMPI PUSH2 0x39B PUSH2 0x1BE JUMP JUMPDEST JUMPDEST PUSH1 0x0 DUP3 ADD CALLDATALOAD PUSH8 0xFFFFFFFFFFFFFFFF DUP2 GT ISZERO PUSH2 0x3BA JUMPI PUSH2 0x3B9 PUSH2 0x1C3 JUMP JUMPDEST JUMPDEST PUSH2 0x3C6 DUP5 DUP3 DUP6 ADD PUSH2 0x2E0 JUMP JUMPDEST SWAP2 POP POP SWAP3 SWAP2 POP POP JUMP JUMPDEST PUSH1 0x0 DUP2 MLOAD SWAP1 POP SWAP2 SWAP1 POP JUMP JUMPDEST PUSH1 0x0 DUP3 DUP3 MSTORE PUSH1 0x20 DUP3 ADD SWAP1 POP SWAP3 SWAP2 POP POP JUMP JUMPDEST PUSH1 0x0 JUMPDEST DUP4 DUP2 LT ISZERO PUSH2 0x409 JUMPI DUP1 DUP3 ADD MLOAD DUP2 DUP5 ADD MSTORE PUSH1 0x20 DUP2 ADD SWAP1 POP PUSH2 0x3EE JUMP JUMPDEST PUSH1 0x0 DUP5 DUP5 ADD MSTORE POP POP POP POP JUMP JUMPDEST PUSH1 0x0 PUSH2 0x420 DUP3 PUSH2 0x3CF JUMP JUMPDEST PUSH2 0x42A DUP2 DUP6 PUSH2 0x3DA JUMP JUMPDEST SWAP4 POP PUSH2 0x43A DUP2 DUP6 PUSH1 0x20 DUP7 ADD PUSH2 0x3EB JUMP JUMPDEST PUSH2 0x443 DUP2 PUSH2 0x1D2 JUMP JUMPDEST DUP5 ADD SWAP2 POP POP SWAP3 SWAP2 POP POP JUMP JUMPDEST PUSH1 0x0 PUSH1 0x20 DUP3 ADD SWAP1 POP DUP2 DUP2 SUB PUSH1 0x0 DUP4 ADD MSTORE PUSH2 0x468 DUP2 DUP5 PUSH2 0x415 JUMP JUMPDEST SWAP1 POP SWAP3 SWAP2 POP POP JUMP JUMPDEST PUSH1 0x0 DUP2 SWAP1 POP SWAP3 SWAP2 POP POP JUMP JUMPDEST PUSH1 0x0 PUSH2 0x486 DUP3 PUSH2 0x3CF JUMP JUMPDEST PUSH2 0x490 DUP2 DUP6 PUSH2 0x470 JUMP JUMPDEST SWAP4 POP PUSH2 0x4A0 DUP2 DUP6 PUSH1 0x20 DUP7 ADD PUSH2 0x3EB JUMP JUMPDEST DUP1 DUP5 ADD SWAP2 POP POP SWAP3 SWAP2 POP POP JUMP JUMPDEST PUSH1 0x0 PUSH2 0x4B8 DUP3 DUP5 PUSH2 0x47B JUMP JUMPDEST SWAP2 POP DUP2 SWAP1 POP SWAP3 SWAP2 POP POP JUMP JUMPDEST PUSH32 0x4E487B7100000000000000000000000000000000000000000000000000000000 PUSH1 0x0 MSTORE PUSH1 0x22 PUSH1 0x4 MSTORE PUSH1 0x24 PUSH1 0x0 REVERT JUMPDEST PUSH1 0x0 PUSH1 0x2 DUP3 DIV SWAP1 POP PUSH1 0x1 DUP3 AND DUP1 PUSH2 0x50A JUMPI PUSH1 0x7F DUP3 AND SWAP2 POP JUMPDEST PUSH1 0x20 DUP3 LT DUP2 SUB PUSH2 0x51D JUMPI PUSH2 0x51C PUSH2 0x4C3 JUMP JUMPDEST JUMPDEST POP SWAP2 SWAP1 POP JUMP JUMPDEST PUSH1 0x0 DUP2 SWAP1 POP DUP2 PUSH1 0x0 MSTORE PUSH1 0x20 PUSH1 0x0 KECCAK256 SWAP1 POP SWAP2 SWAP1 POP JUMP JUMPDEST PUSH1 0x0 PUSH1 0x20 PUSH1 0x1F DUP4 ADD DIV SWAP1 POP SWAP2 SWAP1 POP JUMP JUMPDEST PUSH1 0x0 DUP3 DUP3 SHL SWAP1 POP SWAP3 SWAP2 POP POP JUMP JUMPDEST PUSH1 0x0 PUSH1 0x8 DUP4 MUL PUSH2 0x585 PUSH32 0xFFFFFFFFFFFFFFFFFFFFFFFFFFFFFFFFFFFFFFFFFFFFFFFFFFFFFFFFFFFFFFFF DUP3 PUSH2 0x548 JUMP JUMPDEST PUSH2 0x58F DUP7 DUP4 PUSH2 0x548 JUMP JUMPDEST SWAP6 POP DUP1 NOT DUP5 AND SWAP4 POP DUP1 DUP7 AND DUP5 OR SWAP3 POP POP POP SWAP4 SWAP3 POP POP POP JUMP JUMPDEST PUSH1 0x0 DUP2 SWAP1 POP SWAP2 SWAP1 POP JUMP JUMPDEST PUSH1 0x0 DUP2 SWAP1 POP SWAP2 SWAP1 POP JUMP JUMPDEST PUSH1 0x0 PUSH2 0x5D6 PUSH2 0x5D1 PUSH2 0x5CC DUP5 PUSH2 0x5A7 JUMP JUMPDEST PUSH2 0x5B1 JUMP JUMPDEST PUSH2 0x5A7 JUMP JUMPDEST SWAP1 POP SWAP2 SWAP1 POP JUMP JUMPDEST PUSH1 0x0 DUP2 SWAP1 POP SWAP2 SWAP1 POP JUMP JUMPDEST PUSH2 0x5F0 DUP4 PUSH2 0x5BB JUMP JUMPDEST PUSH2 0x604 PUSH2 0x5FC DUP3 PUSH2 0x5DD JUMP JUMPDEST DUP5 DUP5 SLOAD PUSH2 0x555 JUMP JUMPDEST DUP3 SSTORE POP POP POP POP JUMP JUMPDEST PUSH1 0x0 SWAP1 JUMP JUMPDEST PUSH2 0x619 PUSH2 0x60C JUMP JUMPDEST PUSH2 0x624 DUP2 DUP5 DUP5 PUSH2 0x5E7 JUMP JUMPDEST POP POP POP JUMP JUMPDEST JUMPDEST DUP2 DUP2 LT ISZERO PUSH2 0x648 JUMPI PUSH2 0x63D PUSH1 0x0 DUP3 PUSH2 0x611 JUMP JUMPDEST PUSH1 0x1 DUP2 ADD SWAP1 POP PUSH2 0x62A JUMP JUMPDEST POP POP JUMP JUMPDEST PUSH1 0x1F DUP3 GT ISZERO PUSH2 0x68D JUMPI PUSH2 0x65E DUP2 PUSH2 0x523 JUMP JUMPDEST PUSH2 0x667 DUP5 PUSH2 0x538 JUMP JUMPDEST DUP2 ADD PUSH1 0x20 DUP6 LT ISZERO PUSH2 0x676 JUMPI DUP2 SWAP1 POP JUMPDEST PUSH2 0x68A PUSH2 0x682 DUP6 PUSH2 0x538 JUMP JUMPDEST DUP4 ADD DUP3 PUSH2 0x629 JUMP JUMPDEST POP POP JUMPDEST POP POP POP JUMP JUMPDEST PUSH1 0x0 DUP3 DUP3 SHR SWAP1 POP SWAP3 SWAP2 POP POP JUMP JUMPDEST PUSH1 0x0 PUSH2 0x6B0 PUSH1 0x0 NOT DUP5 PUSH1 0x8 MUL PUSH2 0x692 JUMP JUMPDEST NOT DUP1 DUP4 AND SWAP2 POP POP SWAP3 SWAP2 POP POP JUMP JUMPDEST PUSH1 0x0 PUSH2 0x6C9 DUP4 DUP4 PUSH2 0x69F JUMP JUMPDEST SWAP2 POP DUP3 PUSH1 0x2 MUL DUP3 OR SWAP1 POP SWAP3 SWAP2 POP POP JUMP JUMPDEST PUSH2 0x6E2 DUP3 PUSH2 0x3CF JUMP JUMPDEST PUSH8 0xFFFFFFFFFFFFFFFF DUP2 GT ISZERO PUSH2 0x6FB JUMPI PUSH2 0x6FA PUSH2 0x1E3 JUMP JUMPDEST JUMPDEST PUSH2 0x705 DUP3 SLOAD PUSH2 0x4F2 JUMP JUMPDEST PUSH2 0x710 DUP3 DUP3 DUP6 PUSH2 0x64C JUMP JUMPDEST PUSH1 0x0 PUSH1 0x20 SWAP1 POP PUSH1 0x1F DUP4 GT PUSH1 0x1 DUP2 EQ PUSH2 0x743 JUMPI PUSH1 0x0 DUP5 ISZERO PUSH2 0x731 JUMPI DUP3 DUP8 ADD MLOAD SWAP1 POP JUMPDEST PUSH2 0x73B DUP6 DUP3 PUSH2 0x6BD JUMP JUMPDEST DUP7 SSTORE POP PUSH2 0x7A3 JUMP JUMPDEST PUSH1 0x1F NOT DUP5 AND PUSH2 0x751 DUP7 PUSH2 0x523 JUMP JUMPDEST PUSH1 0x0 JUMPDEST DUP3 DUP2 LT ISZERO PUSH2 0x779 JUMPI DUP5 DUP10 ADD MLOAD DUP3 SSTORE PUSH1 0x1 DUP3 ADD SWAP2 POP PUSH1 0x20 DUP6 ADD SWAP5 POP PUSH1 0x20 DUP2 ADD SWAP1 POP PUSH2 0x754 JUMP JUMPDEST DUP7 DUP4 LT ISZERO PUSH2 0x796 JUMPI DUP5 DUP10 ADD MLOAD PUSH2 0x792 PUSH1 0x1F DUP10 AND DUP3 PUSH2 0x69F JUMP JUMPDEST DUP4 SSTORE POP JUMPDEST PUSH1 0x1 PUSH1 0x2 DUP9 MUL ADD DUP9 SSTORE POP POP POP JUMPDEST POP POP POP POP POP POP JUMP INVALID LOG2 PUSH5 0x6970667358 0x22 SLT KECCAK256 GT JUMP BLOBHASH 0xAB PUSH22 0xFE8FE6E27489F3D4E437B9323F89EF07A72818404047 DUP11 PREVRANDAO 0xAD KECCAK256 0x2C PUSH5 0x736F6C6343 STOP ADDMOD SHR STOP CALLER "
        },
        "methodIdentifiers": {
          "getRecordHash(string)": "9fd86305",
          "storeRecordHash(string,string)": "1eb02564"
        }
      }
    }
  }
}